:100000000C945E000C9486000C9486000C94860080
:100010000C9486000C9486000C9486000C94860048
:100020000C9486000C9486000C9486000C94860038
:100030000C9486000C9486000C9486000C94860028
:100040000C94DE030C9486000C9463010C94A601BE
:100050000C9486000C9486000C9486000C94860008
:100060000C9486000C94860000000007000201003A
:100070000003040600000000000000000102040864
:100080001020408001020408102001020408102002
:10009000040404040404040402020202020203032E
:1000A0000303030300000000250028002B000000CC
:1000B0000000240027002A00C500620211241FBE90
:1000C000CFEFD8E0DEBFCDBF11E0A0E0B1E0E2E1CC
:1000D000FEE002C005900D92A432B107D9F711E0FD
:1000E000A4E2B1E001C01D92A73EB107E1F710E024
:1000F000CCEBD0E004C02297FE010E940307C83B6E
:10010000D107C9F70E94B8020C942A050C9400008C
:1001100040E855E260E070E084E391E00C94E10196
:100120008091330181112DC08091080190910901C6
:10013000892B39F120910601309107014CE0429F53
:10014000C001439F900D11246AE070E00E94CB062D
:10015000709307016093060141E050E084E291E072
:100160000E944403809108019091090101979093A6
:100170000901809308016AE071E084E391E00E9444
:100180001E0384E291E00C949D036CE070E084E235
:1001900091E00C943003FC0124853585F901E05C85
:1001A000FF4F80819181F901EE5BFF4F208131810A
:1001B000821B930B8F7399270895FC018485958585
:1001C000FC01E05CFF4F40815181FC01EE5BFF4F81
:1001D000208131814217530741F00190F081E02DD9
:1001E000E80FF91F808190E008958FEF9FEF089549
:1001F000FC0184859585FC01E05CFF4F40815181C5
:10020000FC01EE5BFF4F208131814217530779F0EB
:10021000A081B181A80FB91F8C91208131812F5FFE
:100220003F4F2F7333273183208390E008958FEF62
:100230009FEF0895FC0181A1882329F0A489B58945
:100240008C9186FFFBCF11A20895CF93DF93FC0121
:1002500026853785D901A05CBF4F8D919C91119760
:1002600001968F739927E901CE5BDF4F4881598151
:1002700084179507D9F30D90BC91A02DA20FB31F41
:100280006C93A685B785A05CBF4F11969C938E9307
:10029000A689B7892C9181E090E0078C02C0880F75
:1002A000991F0A94E2F7282B2C9381E081A30488FC
:1002B000F589E02D80818064808381E090E0DF918A
:1002C000CF91089508951F920F920FB60F921124A7
:1002D0002F933F934F938F939F93EF93FF9380912F
:1002E000C00082FD1CC04091C6008091DA0190914F
:1002F000DB0101968F7399272091DC013091DD019C
:100300008217930771F0E091DA01F091DB01E65674
:10031000FE4F40839093DB018093DA0102C080910D
:10032000C600FF91EF919F918F914F913F912F9137
:100330000F900FBE0F901F90189584E391E00E94DC
:10034000CB00892B11F00C94620108951F920F923B
:100350000FB60F9211242F933F938F939F93EF9398
:10036000FF9320919601309197018091980190918F
:1003700099012817390731F48091C1008F7D80934E
:10038000C10014C0E0919801F0919901EA5AFE4F22
:100390002081809198019091990101968F739927FE
:1003A00090939901809398012093C600FF91EF915B
:1003B0009F918F913F912F910F900FBE0F901F90A3
:1003C0001895CF92DF92EF92FF92CF93DF93EC01DB
:1003D0006A017B01411581EE580761057105F9F04D
:1003E000EC89FD8981E090E008A002C0880F991F88
:1003F0000A94E2F7808360E079E08DE390E0A70162
:1004000096010E94DF062150310941095109569594
:10041000479537952795211580E1380798F0EC89A5
:10042000FD89108260E874E88EE190E0A7019601F2
:100430000E94DF062150310941095109569547951F
:1004400037952795E889F9893083EA89FB892083E4
:1004500019A2EE89FF89408181E090E09C010C8C1B
:1004600002C0220F331F0A94E2F7422B4083EE8929
:10047000FF8940819C010D8C02C0220F331F0A941A
:10048000E2F7422B4083EE89FF8940819C010E8C6C
:1004900002C0220F331F0A94E2F7422B4083EE89F9
:1004A000FF8920810F8C02C0880F991F0A94E2F700
:1004B000809582238083DF91CF91FF90EF90DF9032
:1004C000CF900895109237011092360188EE93E094
:1004D000A0E0B0E08093380190933901A0933A01F5
:1004E000B0933B0188E191E0909335018093340112
:1004F0008AE991E0909341018093400186E591E083
:10050000909343018093420185EC90E090934501E4
:100510008093440184EC90E09093470180934601DE
:1005200080EC90E0909349018093480181EC90E049
:1005300090934B0180934A0182EC90E090934D019F
:1005400080934C0186EC90E090934F0180934E0194
:1005500084E08093500183E08093510187E0809391
:10056000520185E08093530181E080935401089506
:100570000E9457040E948800CDE9D1E00E949000BB
:100580002097E1F30E949D01F9CFCF92DF92EF9285
:10059000FF920F931F93CF93DF936C017A01EB01CE
:1005A000E60EF71E00E010E0CE15DF0561F0699160
:1005B000D601ED91FC910190F081E02DC6010995E5
:1005C000080F191FF1CFC801DF91CF911F910F9133
:1005D000FF90EF90DF90CF9008956115710581F045
:1005E000DB010D900020E9F7AD0141505109461B98
:1005F000570BDC01ED91FC910280F381E02D099411
:1006000080E090E00895DC01ED91FC910190F08193
:10061000E02D09940F931F93CF93DF93EC016DE0CE
:100620000E9403038C016AE0CE010E940303800F45
:10063000911FDF91CF911F910F9108950F931F93F9
:10064000CF93DF93EC010E94ED028C01CE010E945A
:100650000A03800F911FDF91CF911F910F91089591
:100660001F93CF93DF93EC01162F6883798361E0AA
:10067000812F0E94BB0460E0812F0E94F4041F863A
:10068000DF91CF911F9108950F931F93CF93DF9325
:10069000EC018A017B836A83882777FD8095982FF8
:1006A0000E94C8059B01AC0160E070E080E89FE318
:1006B0000E942D0520E030E04AE754E40E945406F1
:1006C00020E030E04AE754E40E94540620E030E0A5
:1006D00040E05FE30E9454060E9495057D836C8391
:1006E0001A860E94280444E6409F9001419F300DE5
:1006F00011248901222717FD2095322F600F711FC9
:10070000821F931F6B877C878D879E8781E08F87F1
:100710000E9434040C811D81222717FD2095322F61
:10072000600F711F821F931F6E837F838887998755
:10073000DF91CF911F910F9108950F931F93CF9346
:10074000DF93EC018F858823A1F10E9434040E8190
:100750001F8128853985061717072807390748F5A7
:100760006A8588810E94F4048A8591E089278A87B6
:100770000E9434040C811D81222717FD2095322F01
:10078000600F711F821F931F6E837F8388879987F5
:100790000E9428040B851C852D853E8506171707AA
:1007A0002807390730F41A8660E088810E94F40433
:1007B0001F86DF91CF911F910F9108951F920F9285
:1007C0000FB60F9211242F933F938F939F93AF9364
:1007D000BF938091DF019091E001A091E101B09180
:1007E000E2013091DE0123E0230F2D3720F4019642
:1007F000A11DB11D05C026E8230F0296A11DB11D44
:100800002093DE018093DF019093E001A093E1014A
:10081000B093E2018091E3019091E401A091E501A0
:10082000B091E6010196A11DB11D8093E301909363
:10083000E401A093E501B093E601BF91AF919F91D0
:100840008F913F912F910F900FBE0F901F90189591
:100850002FB7F8946091DF017091E0018091E10180
:100860009091E2012FBF08953FB7F8948091E30182
:100870009091E401A091E501B091E60126B5A89B15
:1008800005C02F3F19F00196A11DB11D3FBF66277E
:10089000782F892F9A2F620F711D811D911D42E0C3
:1008A000660F771F881F991F4A95D1F7089578948E
:1008B00084B5826084BD84B5816084BD85B5826065
:1008C00085BD85B5816085BDEEE6F0E08081816003
:1008D0008083E1E8F0E01082808182608083808103
:1008E00081608083E0E8F0E0808181608083E1EBDB
:1008F000F0E0808184608083E0EBF0E080818160C3
:100900008083EAE7F0E08081846080838081826078
:100910008083808181608083808180688083109261
:10092000C1000895833081F028F4813099F082303D
:10093000A1F008958630A9F08730B9F08430D1F461
:10094000809180008F7D03C0809180008F7780939D
:100950008000089584B58F7702C084B58F7D84BDF3
:1009600008958091B0008F7703C08091B0008F7D93
:100970008093B0000895CF93DF9390E0FC01E4589A
:10098000FF4F2491FC01E057FF4F8491882349F1E8
:1009900090E0880F991FFC01E255FF4FA591B4919B
:1009A0008C559F4FFC01C591D4919FB7611108C030
:1009B000F8948C91209582238C93888182230AC09D
:1009C000623051F4F8948C91322F309583238C93BC
:1009D0008881822B888304C0F8948C91822B8C931D
:1009E0009FBFDF91CF9108950F931F93CF93DF9314
:1009F0001F92CDB7DEB7282F30E0F901E859FF4F3D
:100A00008491F901E458FF4F1491F901E057FF4F29
:100A100004910023C9F0882321F069830E94920485
:100A20006981E02FF0E0EE0FFF1FEC55FF4FA5911D
:100A3000B4919FB7F8948C91611103C010958123F4
:100A400001C0812B8C939FBF0F90DF91CF911F919D
:100A50000F910895F8940C9407070CD0EBC0E3D0E5
:100A600040F0DAD030F021F45F3F19F0CCC05111E2
:100A700015C1CFC0F0D098F39923C9F35523B1F332
:100A8000951B550BBB27AA2762177307840738F0FD
:100A90009F5F5F4F220F331F441FAA1FA9F333D05C
:100AA0000E2E3AF0E0E830D091505040E695001C10
:100AB000CAF729D0FE2F27D0660F771F881FBB1FCC
:100AC000261737074807AB07B0E809F0BB0B802DA6
:100AD000BF01FF2793585F4F2AF09E3F510568F0F2
:100AE00092C0DCC05F3FECF3983EDCF386957795CF
:100AF0006795B795F7959F5FC9F7880F911D9695F4
:100B0000879597F90895E1E0660F771F881FBB1F4F
:100B1000621773078407BA0720F0621B730B840BFC
:100B2000BA0BEE1F88F7E095089504D06894B111D0
:100B3000B5C0089598D088F09F5790F0B92F9927A5
:100B4000B751A0F0D1F0660F771F881F991F1AF0D8
:100B5000BA95C9F712C0B13081F09FD0B1E00895C5
:100B60009CC0672F782F8827B85F39F0B93FCCF346
:100B7000869577956795B395D9F73EF490958095CE
:100B8000709561957F4F8F4F9F4F0895E89409C0EE
:100B900097FB3EF490958095709561957F4F8F4FB0
:100BA0009F4F9923A9F0F92F96E9BB279395F695C6
:100BB000879577956795B795F111F8CFFAF4BB0F44
:100BC00011F460FF1BC06F5F7F4F8F4F9F4F16C0A8
:100BD000882311F096E911C0772321F09EE8872F32
:100BE000762F05C0662371F096E8862F70E060E0EE
:100BF0002AF09A95660F771F881FDAF7880F969567
:100C0000879597F9089597F99F6780E870E060E00D
:100C100008959FEF80EC089500240A941616170695
:100C200018060906089500240A94121613061406DD
:100C300005060895092E0394000C11F4882352F040
:100C4000BB0F40F4BF2B11F460FF04C06F5F7F4FF8
:100C50008F4F9F4F089557FD9058440F551F59F0DF
:100C60005F3F71F04795880F97FB991F61F09F3F99
:100C700079F087950895121613061406551FF2CFC2
:100C80004695F1DF08C0161617061806991FF1CF12
:100C900086957105610508940895E894BB27662739
:100CA0007727CB0197F908950BD0C4CFB5DF28F093
:100CB000BADF18F0952309F0A6CFABCF1124EECF01
:100CC000CADFA0F3959FD1F3950F50E0551F629FA7
:100CD000F001729FBB27F00DB11D639FAA27F00D95
:100CE000B11DAA1F649F6627B00DA11D661F829FBC
:100CF0002227B00DA11D621F739FB00DA11D621FA1
:100D0000839FA00D611D221F749F3327A00D611DBD
:100D1000231F849F600D211D822F762F6A2F11249F
:100D20009F5750408AF0E1F088234AF0EE0FFF1FF2
:100D3000BB1F661F771F881F91505040A9F79E3F29
:100D4000510570F060CFAACF5F3FECF3983EDCF323
:100D5000869577956795B795F795E7959F5FC1F766
:100D6000FE2B880F911D9695879597F90895AA1BDC
:100D7000BB1B51E107C0AA1FBB1FA617B70710F086
:100D8000A61BB70B881F991F5A95A9F780959095B8
:100D9000BC01CD01089597FB072E16F4009407D0EF
:100DA00077FD09D00E94B70607FC05D03EF4909568
:100DB00081959F4F0895709561957F4F0895A1E2A9
:100DC0001A2EAA1BBB1BFD010DC0AA1FBB1FEE1FC5
:100DD000FF1FA217B307E407F50720F0A21BB30B10
:100DE000E40BF50B661F771F881F991F1A9469F78C
:100DF00060957095809590959B01AC01BD01CF01E8
:100E00000895EE0FFF1F0590F491E02D0994F894DA
:020E1000FFCF12
:100E12000000E70120006E0010006265657020622C
:100E220065657000000000002501C502CB00F800D6
:040E3200DD001A01C4
:00000001FF
